:020000040000FA
:040000003DEF0EF0D2
:04000800BCEF08F051
:06002A00D9CFE5FFE1CF94
:10003000D9FF00C0E5FF01C0E5FF02C0E5FF03C036
:10004000E5FF04C0E5FF05C0E5FF06C0E5FF0001D0
:10005000A16B05010051E838E840030B006E005029
:1000600002E136EF00F0E86ADBEF01F005EE01F0A7
:10007000EFCF00F0005002E1D3EF01F00050010A91
:1000800002E1D3EF01F00050030A02E1D3EF01F0E7
:100090000050050A02E136EF01F00050060A02E1C5
:1000A00078EF00F00050080A02E168EF00F000501D
:1000B000090A02E13BEF01F000500A0A02E1D3EF26
:1000C00001F000500B0A02E1D3EF01F0D0EF01F094
:1000D000000E0001886F9F0E0001876F800E0001E7
:1000E000896F010E00018D6F00018E6BD3EF01F05F
:1000F00005EE03F0EFCF00F0010E005CD8A031EF69
:1001000001F0040E005CD8B031EF01F0000607C02A
:10011000E5FF08C0E5FF086A00340836E834083611
:10012000FC0B076E000EFB6E010EFA6E440E0726E6
:100130000850FA22D8B0FB2A0750E4CF08F0E4CFE9
:1001400007F0F96EA8EF00F0C2EF00F0FCEF00F04E
:1001500072C087F073C088F074C089F072C000F07C
:1001600073C001F074C002F000C0E9FF01C0F3FFEA
:100170000250E3EC0DF0006E00C08DF000018E6BBC
:10018000D3EF01F005EE02F0EFCF00F00050030DC9
:10019000F3CF00F0F4CF01F000017551002600010B
:1001A0007651012200017751026A022200C0E9FF64
:1001B00001C0F3FF02505BEC0DF00001876FF3CF3D
:1001C00088F0F4CF89F087C000F088C001F089C0C2
:1001D00002F0020E0026000E0122000E022200C0D4
:1001E000E9FF01C0F3FF0250A7EC0DF000018D6F95
:1001F000F3CF8EF0D3EF01F005EE02F0EFCF00F079
:100200000050030DF3CF00F0F4CF01F0000178515E
:10021000002600017951012200017A51026A02226E
:1002200000C0E9FF01C0F3FF02505BEC0DF00001DC
:10023000876FF3CF88F0F4CF89F087C000F088C0D3
:1002400001F089C002F000C0E9FF01C0F3FF0250D5
:10025000E3EC0DF0006E00C08DF000018E6BD3EF6B
:1002600001F0010E0001A16FD3EF01F0040E0001B7
:100270009E6FD3EF01F072C000F073C001F074C044
:1002800002F0110E0026000E0122000E022200C014
:10029000E9FF01C0F3FF0250E3EC0DF0006E05EE44
:1002A00002F0EFCF01F00150005CD8A0CBEF01F0DD
:1002B00005EE02F0EFCF9FF0716A726A736A746A9A
:1002C000756A766A776A786A796A7A6A7B6A7C6A1A
:1002D0007D6A7E6A7F6A00019F51D8A475EF01F0A4
:1002E000050E00019E6FD3EF01F0060E00019E6F18
:1002F0000F0E006E00019F51030DF3CF01F0F4CFFC
:1003000002F000017B51012600017C510222000114
:100310007D51036A032201C0E9FF02C0F3FF0350CD
:100320005BEC0DF0016EF3CF02F0F4CF03F00004AC
:10033000046E0450030DF3CF05F0F4CF06F0055022
:10034000012606500222E86A032201C0E9FF02C02A
:10035000F3FF03505BEC0DF0016EF3CF02F0F4CF2E
:1003600003F0F2CFE5FFF29E0500860EFD6E030E50
:10037000FE6E000EFF6EE450F26E03C0FBFF02C083
:10038000FAFF0150F96E04C000F00050D8A47AEFD3
:1003900001F0D3EF01F0010E0001A16FD3EF01F0E6
:1003A000010E0001A16F0001A151D880E866D8902C
:1003B000006A00360050E4CF06F0E4CF05F0E4CF49
:1003C00004F0E4CF03F0E4CF02F0E4CF01F0E4CF97
:1003D00000F0E4CFD9FF1200D9CFE5FFE1CFD9FF7C
:1003E00000C0E5FF01C0E5FF02C0E5FF03C0E5FF77
:1003F00004C0E5FF69A403EF02F068A403EF02F074
:100400006D926994689469A00BEF02F068A00BEFFD
:1004100002F06EEC09F069A814EF02F068A814EF7E
:1004200002F0698468986D8269AA61EF02F068AA97
:1004300061EF02F0006A70B0002A0050010A02E188
:1004400024EF02F060EF02F000019F51030DF3CFA3
:1004500000F0F4CF01F000017B51002600017C5137
:10046000012200017D51026A022200C0E9FF01C0A1
:10047000F3FF02505BEC0DF0006EF3CF01F0F4CF10
:1004800002F000C0E9FF01C0F3FF02505BEC0DF089
:10049000006EF3CF01F0F4CF02F0F2CFE5FFF29E51
:1004A0000500BE0EFD6E040EFE6E000EFF6EE450E3
:1004B000F26E02C0FBFF01C0FAFF0050F96E7090AF
:1004C000689A030E00019E5DD8A0A4EF03F069A610
:1004D000A4EF03F068A6A4EF03F06CB443EF03F0BD
:1004E0006C50E838E8440F0B006E00500024016E99
:1004F0000150040DF3CF00F0000E0026040E016A37
:1005000000BE0168012200C0E9FF01C0EAFFEF5010
:10051000E840E8400F0B006E00500D0A02E193EF37
:1005200002F0EBEF02F000019F51030DF3CF00F05A
:10053000F4CF01F000017E51002600017F5101221D
:1005400000018051026A022200C0E9FF01C0F3FFEE
:1005500002505BEC0DF0006EF3CF01F0F4CF02F02F
:100560006C50E838E8440F0B036E046A000EE56E29
:10057000030EE56E0450E56E0350E56E5CEC0CF086
:10058000036EF3CF04F0040EE1260350002604505E
:100590000122E86A022200C0E9FF01C0F3FF025015
:1005A0005BEC0DF0006EF3CF01F0F4CF02F0F2CF70
:1005B000E5FFF29E0500D20EFD6E050EFE6E000EEA
:1005C000FF6EE450F26E02C0FBFF01C0FAFF005064
:1005D000F96EA3EF03F000019F51030DF3CF00F07C
:1005E000F4CF01F000018151002600018251012267
:1005F00000018351026A022200C0E9FF01C0F3FF3B
:1006000002505BEC0DF0006EF3CF01F0F4CF02F07E
:100610006C50E838E8440F0B036E046A000EE56E78
:10062000030EE56E0450E56E0350E56E5CEC0CF0D5
:10063000036EF3CF04F0040EE126035000260450AD
:100640000122E86A022200C0E9FF01C0F3FF025064
:100650005BEC0DF0006EF3CF01F0F4CF02F0F2CFBF
:10066000E5FFF29E0500820EFD6E060EFE6E000E88
:10067000FF6EE450F26E02C0FBFF01C0FAFF0050B3
:10068000F96EA3EF03F0006A6CB4002A0050010A6F
:1006900002E14DEF03F0A3EF03F000019F51030DC2
:1006A000F3CF00F0F4CF01F00001845100260001E7
:1006B0008551012200018651026A022200C0E9FF31
:1006C00001C0F3FF02505BEC0DF0006EF3CF01F0C0
:1006D000F4CF02F06C50E838E8440F0B036E046A64
:1006E000000EE56E030EE56E0450E56E0350E56EF8
:1006F0005CEC0CF0036EF3CF04F0040EE126035023
:10070000002604500122E86A022200C0E9FF01C06D
:10071000F3FF02505BEC0DF0006EF3CF01F0F4CF6D
:1007200002F0F2CFE5FFF29E0500460EFD6E070EC9
:10073000FE6E000EFF6EE450F26E02C0FBFF01C0C1
:10074000FAFF0050F96E6896E4CF04F0E4CF03F0AE
:10075000E4CF02F0E4CF01F0E4CF00F0E4CFD9FF22
:100760001200453A4F56455252554E0012010002B2
:10077000FF00FF08A5A50100000101020302090214
:100780001200010104C0000904000000FFFFFF0483
:1007900009022000010205C0000904000002FFFF59
:1007A000FF05070501024000000705820240000026
:1007B0007E0700900700040309041C035600610033
:1007C000730063006F002000500072006F006A0029
:1007D0006500630074002403500065007200690026
:1007E000700068006500720061006C0020006D0000
:1007F0006F00640075006C00650004033100100395
:10080000440065006600610075006C0074000C0314
:1008100046006C00610073006800B60700BA07006C
:10082000D60700FA0700FE07000E08001E1B00A2F4
:100830001C00A21C00A21C00A21C00A21C00A21CE6
:1008400000A21C00A21C00A21C00A21C00A21C00F2
:10085000A21C00A21C00A21C00A21C001E1B007AED
:100860001B001E1C00A21C00A21C00A21C00A21C3B
:1008700000A21C00A21C00A21C00A21C00A21C00C2
:10088000A21C00A21C00A21C00A21C002C08002C10
:1008900008005C080000DC1400A21C00A21C00A2DE
:1008A0001C00A21C00A21C00A21C00A21C00A21C76
:1008B00000A21C00A21C00A21C00A21C00A21C0082
:1008C000A21C00A21C00DC1400A21C00BE1500A289
:1008D0001C00A21C00A21C00A21C00A21C00A21C46
:1008E00000A21C00A21C00A21C00A21C00A21C0052
:1008F000A21C00A21C00960800960800C608000072
:100900001E1B00A21C00A21C00A21C00A21C00A214
:100910001C00A21C00A21C00A21C00A21C00A21C05
:1009200000A21C00A21C00A21C00A21C00A21C0011
:100930001E1B00D60900A21C00A21C00A21C00A2C3
:100940001C00A21C00A21C00A21C00A21C00A21CD5
:1009500000A21C00A21C00A21C00A21C00A21C00E1
:10096000000900000900300900000C1000A21C0062
:10097000A21C00A21C00A21C00A21C00A21C00A21F
:100980001C00A21C00A21C00A21C00A21C00A21C95
:1009900000A21C00A21C00A21C006A09006A090037
:1009A0006A09000055534220414443207665722E67
:1009B00020312E3100004F4B00004552524F520063
:1009C0000301000000FF1F0003002000FF7F000163
:1009D0000000300D0030D9CFE5FFE1CFD9FF00C0D6
:1009E000E5FF01C0E5FF02C0E5FF03C0E5FF04C06D
:1009F000E5FF05C0E5FF06C0E5FF07C0E5FF09C448
:100A0000A3F0010E0001A35DD8A001EF06F005EEF2
:100A100010F0EFCF00F0060E005CD8B001EF06F04A
:100A200008C0E5FF09C0E5FF096A00340936E8346B
:100A30000936FC0B086E000EFB6E0A0EFA6E560E9F
:100A400008260950FA22D8B0FB2A0850E4CF09F052
:100A5000E4CF08F0F96E37EF05F049EF05F09CEFB1
:100A600005F0B6EF05F0CAEF05F0DEEF05F0110E68
:100A700000018F6F0001906BA40E00018A6F090EB8
:100A800000018B6F000E00018C6F4CEC0BF0F0EF4F
:100A900005F009C4A4F00C0E0001A45DD8A001EF7C
:100AA00006F0006A00016DB1002A0050010A02E15F
:100AB00001EF06F0006A0B0E005CD8B08AEF05F07B
:100AC000000E026E600E016E800E036E0050012655
:100AD000E86A0222E86A03220028046E100E042449
:100AE000056E066A050E0622076A000E072205C07B
:100AF000E9FF06C0EAFFEFCF05F005C0E5FF01C042
:100B0000E9FF02C0F3FF035047EC0EF004C000F011
:100B10005BEF05F0030E00018F6F0001906BB60EC6
:100B200000018A6F090E00018B6F000E00018C6FAF
:100B30004CEC0BF0F0EF05F000016DB101EF06F0A9
:100B400008EC0CF0FAEC09F0030E00018F6F0001C5
:100B5000906BB60E00018A6F090E00018B6F000EBC
:100B600000018C6F4CEC0BF0F0EF05F027EC0EF071
:100B7000030E00018F6F0001906BB60E00018A6FAB
:100B8000090E00018B6F000E00018C6F4CEC0BF016
:100B9000F0EF05F027EC0EF0020E00018F6F000160
:100BA000906B000E00018B6F6F0E00018A6F800E3C
:100BB00000018C6F4CEC0BF0F0EF05F027EC0EF021
:100BC0000B0E00018F6F0001906B000E00018B6F08
:100BD000600E00018A6F800E00018C6F4CEC0BF0F0
:100BE000400E0401096F040108BDFCEF05F0C80EBA
:100BF0000401086FFFEF05F0880E0401086F0DEF88
:100C000006F0400E0401096F100E04010A6F050E74
:100C100004010B6F840E0401086FE4CF07F0E4CFEA
:100C200006F0E4CF05F0E4CF04F0E4CF03F0E4CF26
:100C300002F0E4CF01F0E4CF00F0E4CFD9FF1200DE
:100C4000D9CFE5FFE1CFD9FF00C0E5FF01C0E5FF47
:100C500002C0E5FF03C0E5FF04C0E5FF05C0E5FFF6
:100C600006C0E5FF07C0E5FF08C0E5FF09C0E5FFD6
:100C70000AC0E5FF0BC0E5FF0CC0E5FF0DC0E5FFB6
:100C8000020EDBCF00F0030EDBCF01F0040EDBCF52
:100C900002F0050EDBCF03F0060EDBCF04F0070EEB
:100CA000DBCF05F0080EDBCF06F0090EDBCF07F037
:100CB0000A0EDBCF08F006C0E9FF07C0F3FF0850BB
:100CC000A7EC0DF0096EF3CF0AF005500A5C02E1C3
:100CD0000450095CD8B073EF06F009C00BF00AC0ED
:100CE0000CF077EF06F004C00BF005C00CF00050DC
:100CF0000024046E0428006E0050040DF3CF00F0B1
:100D0000000E0024046E056A040E0522042AD8B0E1
:100D1000052A0B500D6E04C0E9FF05C0EAFF0DC0A7
:100D2000EFFF000E0026040E046A0422020E0026C5
:100D3000D8B0042A00C0E9FF04C0EAFFEECF00F0FB
:100D4000EFCF04F00450046E0050006E800E056E6C
:100D50000B50095E0C500A5A09C0E5FF0AC0F4FFA7
:100D600006C0E9FF07C0F3FF08501BEC0EF00BC0F4
:100D700006F00CC007F006500710D8B4FAEF06F0E2
:100D800001C0E9FF02C0F3FF03505BEC0DF0086EF9
:100D9000F3CF09F0F4CF0AF008C0E9FF09C0F3FF70
:100DA0000A50E3EC0DF00B6E0BC0E5FF00C0E9FF4D
:100DB00004C0F3FF055047EC0EF0002AD8B0042A17
:100DC000D8B0052A082AD8B0092AD8B00A2A08C0FB
:100DD000E5FF09C0F4FF0AC0F6FF01C0E9FF02C049
:100DE000F3FF0350F4EC0DF0FF0E0626D8A0070623
:100DF000BBEF06F0E4CF0DF0E4CF0CF0E4CF0BF046
:100E0000E4CF0AF0E4CF09F0E4CF08F0E4CF07F034
:100E1000E4CF06F0E4CF05F0E4CF04F0E4CF03F034
:100E2000E4CF02F0E4CF01F0E4CF00F0E4CFD9FF4B
:100E30001200D9CFE5FFE1CFD9FF00C0E5FF01C027
:100E4000E5FF02C0E5FF03C0E5FF0F0EC16E070E10
:100E5000B46EFE0E926E010E806E006A016A080E7C
:100E6000026E036A0050011002100310D8B443EF61
:100E700007F0FF0E0026FF0E0122FF0E0222FF0EDA
:100E8000032232EF07F0806A300EF66E200EF76E06
:100E9000000EF86E0900F5CF00F00050D8A4BCEFAA
:100EA00007F0310EF66E200EF76E000EF86E090098
:100EB000F5CF72F00900F5CF73F00900F5CF74F0AB
:100EC000340EF66E200EF76E000EF86E0900F5CFA8
:100ED00075F00900F5CF76F00900F5CF77F0370E01
:100EE000F66E200EF76E000EF86E0900F5CF78F062
:100EF0000900F5CF79F00900F5CF7AF03A0EF66ED9
:100F0000200EF76E000EF86E0900F5CF7BF0090099
:100F1000F5CF7CF00900F5CF7DF03D0EF66E200E8A
:100F2000F76E000EF86E0900F5CF84F00900F5CFDA
:100F300085F00900F5CF86F0400EF66E200EF76EB4
:100F4000000EF86E0900F5CF81F00900F5CF82F0B0
:100F50000900F5CF83F0430EF66E200EF76E000EFB
:100F6000F86E0900F5CF7EF00900F5CF7FF009009B
:100F7000F5CF80F0FBEF07F06C0E0001726F070EEB
:100F80000001736F000E0001746FB00E0001756FE9
:100F9000070E0001766F000E0001776F1A0E000138
:100FA000786F080E0001796F000E00017A6F8C0EC9
:100FB00000017B6F080E00017C6F000E00017D6F49
:100FC000F60E0001846F080E0001856F000E00010F
:100FD000866F600E0001816F090E0001826F000EA6
:100FE0000001836F9A0E00017E6F090E00017F6F72
:100FF000000E0001806FE4CF03F0E4CF02F0E4CFF5
:1010000001F0E4CF00F0E4CFD9FF1200D9CFE5FF23
:10101000E1CFD9FF00C0E5FF01C0E5FF02C0E5FF59
:1010200003C0E5FF04C0E5FF05C0E5FF0001A06BBC
:1010300000018D6B00018E6B15EC00F0006E00500E
:10104000D8B49EEF08F06D98006A050100BF002A31
:101050000050010A02E12FEF08F084EF08F0010EC2
:101060000001A06F080E0401016F0401026B050E60
:101070000401036F800E0401006F080E006E050E60
:10108000016E00500401066F01500401076F05EE68
:1010900006F0EECF00F0EFCF01F000018E51015CC1
:1010A00003E100018D51005CD8B05DEF08F005EE62
:1010B00006F0EECF8DF0EFCF8EF0000E016E870EB2
:1010C000006E800E026E000E046E8D0E036E800E9A
:1010D000056E0550E56E0450E56E0350E56E000E9A
:1010E000E56E080EE56E0250E56E0150E56E0050AB
:1010F000E56E000EE56E20EC06F0090EE126C80E46
:101100000401046FADEF08F0020E0001A06F080E9D
:101110000401016F080E006E050E016E00500401FF
:10112000026F01500401036FC80E0401006F040137
:10113000056BC80E0401046FADEF08F06D98080E42
:101140000401016F0401026B050E0401036F840E9C
:101150000401006F840E0401046FE4CF05F0E4CFB6
:1011600004F0E4CF03F0E4CF02F0E4CF01F0E4CFE9
:1011700000F0E4CFD9FF1200E8CFE5FFD8CFE5FFBC
:10118000E0CFE5FFF3CFE5FFF4CFE5FFE9CFE5FFE3
:10119000EACFE5FFFACFE5FFFBCFE5FFD9CFE5FFCB
:1011A000E1CFD9FF00C0E5FF01C0E5FF00016F2BD3
:1011B000D8A002D00001702B6EC000F000016E2B91
:1011C000000E0026010E016A012200C0E9FF01C0E5
:1011D000EAFFC4CFEFFF6EC000F000016E2B000EDF
:1011E0000026010E016A012200C0E9FF01C0EAFFEA
:1011F000C3CFEFFF9E9C00019B2B00019A51000181
:101200009B5DD8A042EF09F000019B6B0001982B79
:10121000000197510001985DD8A013EF09F000017B
:10122000986B00016E6B000198510001991902E161
:101230001CEF09F022EF09F000016D839D9CC26A4A
:1012400055EF09F06EC000F000016E2B000E002675
:10125000010E016A012200C0E9FF01C0EAFF440E4D
:10126000EF6E6EC000F000016E2B000E0026010E26
:10127000016A012200016C2B00C0E9FF01C0EAFFF6
:101280006CC0EFFF9BC000F0630E0026000E016AE9
:10129000012200C0E9FF01C0EAFFEFCF00F00034F7
:1012A0007E0B016E01260128C26EE4CF01F0E4CF6F
:1012B00000F0E4CFD9FFE4CFFBFFE4CFFAFFE4CFA7
:1012C000EAFFE4CFE9FFE4CFF4FFE4CFF3FFE4CF9C
:1012D000E0FFE4CFD8FFE4CFE8FF1000D9CFE5FF6F
:1012E000E1CFD9FF00C0E5FF01C0E5FF02C0E5FF87
:1012F00003C0E5FF04C0E5FF05C0E5FF06C0E5FF4C
:10130000686A7B0E696E6B6A6E6A68A68BEF09F07D
:10131000689685EF09F0030E00019E6F00019F6B38
:1013200000019D6B706A716A726A736A746A756A89
:10133000766A776A786A796A7A6A7B6A7C6A7D6A91
:101340007E6A7F6A6D98100E006E7BC001F07CC0D3
:1013500002F07DC003F001C0E9FF02C0F3FF0350BB
:101360005BEC0DF0016EF3CF02F0F4CF03F000045C
:10137000046E0450030DF3CF05F0F4CF06F00550D2
:10138000012606500222E86A032201C0E9FF02C0DA
:10139000F3FF03505BEC0DF0016EF3CF02F0F4CFDE
:1013A00003F0F2CFE5FFF29E0500C60EFD6E130EB0
:1013B000FE6E000EFF6EE450F26E03C0FBFF02C033
:1013C000FAFF0150F96E04C000F00050D8A4A5EF58
:1013D00009F0E4CF06F0E4CF05F0E4CF04F0E4CF69
:1013E00003F0E4CF02F0E4CF01F0E4CF00F0E4CF6B
:1013F000D9FF1200D9CFE5FFE1CFD9FF00C0E5FF4B
:1014000001C0E5FF0001986B0001996B00019B6B27
:1014100000016C6B3C0E00016F6F0001706B0001EE
:101420006E6B6EC000F000016E2B000E0026010EE8
:10143000016A012200C0E9FF01C0EAFF440EEF6E1D
:101440006EC000F000016E2B000E0026010E016A36
:10145000012200C0E9FF01C0EAFF000EEF6E0001AB
:101460006D93FF0E926EC16A9E9C9D8C9F8C9BC05B
:1014700000F0630E0026000E016A012200C0E9FFA1
:1014800001C0EAFFEFCF00F000347E0B016E0126B1
:101490000128C26E060EC06E61C0BCFF60C0BBFFFB
:1014A0000B0EBA6EB16A040ECD6ECE6ACF6A030E11
:1014B00000016215006E0038F00B016E010E011084
:1014C000CD6E00016D819E9C9D8CF28CF28EE4CFDE
:1014D00001F0E4CF00F0E4CFD9FF1200D9CFE5FF4F
:1014E000E1CFD9FF00C0E5FF01C0E5FF02C0E5FF85
:1014F00003C0E5FF04C0E5FF05C0E5FF00019E5104
:10150000040A02E186EF0AF096EF0AF005EE02F017
:10151000EFCF6EFF6E5002E193EF0AF0050E00016F
:101520009E6F96EF0AF0030E00019E6F0001A0511E
:10153000010A02E19EEF0AF0CEEF0AF0000E016E02
:10154000870E006E800E026E000E046E8D0E036E0E
:10155000800E056E0550E56E0450E56E0350E56E95
:10156000000EE56E080EE56E0250E56E0150E56E68
:101570000050E56E000EE56E20EC06F0090EE12647
:10158000040104BDC9EF0AF0C80E0401046FD0EFD6
:101590000AF0880E0401046FD0EF0AF08FEC0DF012
:1015A000E4CF05F0E4CF04F0E4CF03F0E4CF02F0A1
:1015B000E4CF01F0E4CF00F0E4CFD9FF1200D9CF9F
:1015C000E5FFE1CFD9FF00C0E5FF01C0E5FF02C0A4
:1015D000E5FF03C0E5FF04C0E5FF05C0E5FF00012E
:1015E0008F5100019011D8A4FDEF0AF00001A45121
:1015F000D8B4FDEF0AF03DEF0BF0000E0001905D56
:1016000003E1400E00018F5DD8700001A46B000162
:10161000A43700018F51006E00500401156F000EB9
:10162000016E8A0E006E800E026E000E046E8F0E2A
:10163000036E800E056E0550E56E0450E56E035096
:10164000E56E000EE56E400EE56E0250E56E01504F
:10165000E56E0050E56E020EE56E20EC06F0090E18
:10166000E126040114BD3AEF0BF0C80E0401146F1B
:101670003DEF0BF0880E0401146FE4CF05F0E4CFCA
:1016800004F0E4CF03F0E4CF02F0E4CF01F0E4CFC4
:1016900000F0E4CFD9FF1200D9CFE5FFE1CFD9FFA9
:1016A00000C0E5FF01C0E5FF02C0E5FF03C0E5FFA4
:1016B00004C0E5FF05C0E5FF000E0001905D03E1F9
:1016C000400E00018F5DD8700001A46B0001A437AB
:1016D00000018F51006E00500401156F500E04017F
:1016E000166F050E0401176F000E016E8A0E006E54
:1016F000800E026E000E046E8F0E036E800E056E5D
:101700000550E56E0450E56E0350E56E000EE56E83
:10171000400EE56E0250E56E0150E56E0050E56E3C
:10172000020EE56E20EC06F0090EE126040114BD60
:101730009FEF0BF0C80E0401146FA2EF0BF0880EA0
:101740000401146FE4CF05F0E4CF04F0E4CF03F01C
:10175000E4CF02F0E4CF01F0E4CF00F0E4CFD9FF12
:101760001200D9CFE5FFE1CFD9FF00C0E5FF01C0EE
:10177000E5FF040114BF01EF0CF000016DA3D5EFEC
:101780000BF00A0E00018F6F0001906B620E0001DA
:101790008A6F070E00018B6F000E00018C6F4CECFE
:1017A0000BF000016D9301EF0CF000019851000166
:1017B000991902E101EF0CF071C08FF00001906BFC
:1017C0000001715100019903F3CF00F0000E0026D3
:1017D000010E016A0122015000018B6F00500001CF
:1017E0008A6F800E00018C6F4CEC0BF00001992B7E
:1017F000000197510001995DD8A001EF0CF00001A4
:10180000996BE4CF01F0E4CF00F0E4CFD9FF1200F0
:10181000D9CFE5FFE1CFD9FF00C0E5FF01C0E5FF6B
:1018200002C0E5FF03C0E5FF00019A6B006A016A90
:101830000150800F800F02E1080E005CD8B039EF34
:101840000CF0630E0024026E000E0120036E02C035
:10185000E9FF03C0EAFFEFCF02F0100E025CD8B040
:1018600039EF0CF000019A2B002AD8B0012A18EFAA
:101870000CF0D89000019A35006E020E0024000191
:10188000716F71C0E5FFFF0EE56EEEEC0CF000012C
:10189000976FE450E4500001986B0001996B0001D0
:1018A0009B6BE4CF03F0E4CF02F0E4CF01F0E4CF90
:1018B00000F0E4CFD9FF1200D9CFE5FFE1CFD9FF87
:1018C00000C0E5FF01C0E5FF02C0E5FF03C0E5FF82
:1018D000020EDBCF00F0030EDBCF01F0040EDBCFF6
:1018E00002F0050EDBCF03F000500001916F0150B4
:1018F000926F02500001936F0350946F0001915159
:1019000000019303F3CF00F0F4CF01F00050000189
:10191000956F0150966F0001915100019403F3CF30
:1019200000F00001925100019303F3CF01F0015048
:1019300000260001965100260050966F96C0F3FFD6
:101940009551E4CF03F0E4CF02F0E4CF01F0E4CF0F
:1019500000F0E4CFD9FF120019EC07F076EC0DF09F
:1019600032EC0EF0B1EC0BF0ECEC01F0300EF66E58
:10197000200EF76E000EF86E0900F5CF00F0005053
:10198000D8A4B2EF0CF0030E00019F5DD8A0B2EF17
:101990000CF0460EF66E200EF76E000EF86E090083
:1019A000F5CF00F00900F5CF01F00900F5CF02F006
:1019B000F2CFE5FFF29E0500D40EFD6E190EFE6E0D
:1019C000000EFF6EE450F26E02C0FBFF01C0FAFF92
:1019D0000050F96EF26AB2EF0CF01200D9CFE5FFB9
:1019E000E1CFD9FF00C0E5FF01C0E5FF02C0E5FF80
:1019F00003C0E5FF04C0E5FF020EDBCF00F0030EDD
:101A0000DBCF01F0026A080E036E800E0014046E34
:101A100000500026025002260450D8A40280015033
:101A2000025C03E30150025E0080032EEED70050FB
:101A3000E4CF04F0E4CF03F0E4CF02F0E4CF01F010
:101A4000E4CF00F0E4CFD9FF1200D9CFE5FFE1CF1A
:101A5000D9FF00C0E5FF01C0E5FF02C0E5FF020EAF
:101A6000DBCF00F0030EDBCF01F00A00026A200E8C
:101A7000025CD8B049EF0DF000C0E9FF01C0EAFFF9
:101A8000EFCFF5FF002AD8B0012A0F00022A37EF66
:101A90000DF0A68EA69CA684F29E550EA76EAA0EE9
:101AA000A76EA682E4CF02F0E4CF01F0E4CF00F00D
:101AB000E4CFD9FF1200E8AE08D0F3CFEAFFEE5032
:101AC000EECFF3FFEECFF4FF1200E8BC0ED0E9CF6B
:101AD000F6FFF3CFF7FFF86E0900F5500900F5CFD8
:101AE000F3FF0900F5CFF4FF12001200D9CFE5FF94
:101AF000E1CFD9FF696A140E6F6E080E6D6E6DBA74
:101B00007FEF0DF0686A110E696E020E00019E6F84
:101B100000019F6B00019D6BE4CFD9FF1200D9CF6C
:101B2000E5FFE1CFD9FF0001A06B080E0401016FB2
:101B30000401026B050E0401036F880E0401006F9F
:101B40000401046B160E706EE4CFD9FF1200E8AEEC
:101B500006D0F3CFEAFFEE50EECFF3FF1200E8BC61
:101B60000BD0E9CFF6FFF3CFF7FFF86E0900F55081
:101B70000900F5CFF3FF12001200D9CFE5FFE1CF46
:101B8000D9FF400E0401096F100E04010A6F050E03
:101B900004010B6F880E0401086F1C0E716EE4CFF8
:101BA000D9FF1200D9CFE5FFE1CFD9FFA68EA69CC1
:101BB000A684A688F29E550EA76EAA0EA76EA682D0
:101BC000E4CFD9FF1200E8AE04D0F3CFEAFFEE5025
:101BD0001200E8BC08D0E9CFF6FFF3CFF7FFF86EAC
:101BE0000900F55012001200E8AE09D0F3CFEAFF69
:101BF000E4CFEEFFF4CFEEFFF6CFEEFF1200E8AC3D
:101C000012001200D9CFE5FFE1CFD9FF6DA20CEF92
:101C10000EF0A08A0300A19AE4CFD9FF1200D9CF19
:101C2000E5FFE1CFD9FF480E0401146F1A0E726E62
:101C3000E4CFD9FF1200E8AE07D0F3CFEAFFE4CF3C
:101C4000EEFFF4CFEEFF1200E8AC12001200D9CF85
:101C5000E5FFE1CFD9FF9D9CC26A00016D91E4CF01
:101C6000D9FF1200D9CFE5FFE1CFD9FF00016D9375
:101C700000016D91E4CFD9FF120012EEFEF022EECA
:101C8000FEF0F86AA68EA69CACEC0CF0FFD7E8AE8E
:101C900005D0F3CFEAFFE4CFEEFF1200E8AC12006C
:101CA0001200D9CFE5FFE1CFD9FFE4CFD9FF120071
:101CB0000100BE1C00006B000000070000000000D7
:061CC000000064000000BA
:10203000FF000000000000000000000000000000A1
:0A2040000000000000000000000096
:020000040030CA
:0E000000E13EF8E0FFFC9AFFFFFFFE9FFFFFCE
:00000001FF
